{
  "_format": "hh-sol-artifact-1",
  "contractName": "GasContract",
  "sourceName": "contracts/gassCost.sol",
  "abi": [
    {
      "inputs": [
        {
          "internalType": "uint256",
          "name": "_id",
          "type": "uint256"
        },
        {
          "internalType": "string",
          "name": "_name",
          "type": "string"
        },
        {
          "internalType": "uint256",
          "name": "_age",
          "type": "uint256"
        },
        {
          "internalType": "string",
          "name": "_major",
          "type": "string"
        }
      ],
      "name": "addStudent",
      "outputs": [],
      "stateMutability": "nonpayable",
      "type": "function"
    },
    {
      "inputs": [
        {
          "internalType": "uint256",
          "name": "_index",
          "type": "uint256"
        },
        {
          "internalType": "uint256",
          "name": "_id",
          "type": "uint256"
        },
        {
          "internalType": "string",
          "name": "_name",
          "type": "string"
        },
        {
          "internalType": "uint256",
          "name": "_age",
          "type": "uint256"
        },
        {
          "internalType": "string",
          "name": "_major",
          "type": "string"
        }
      ],
      "name": "editStudent",
      "outputs": [],
      "stateMutability": "nonpayable",
      "type": "function"
    },
    {
      "inputs": [
        {
          "internalType": "uint256",
          "name": "_index",
          "type": "uint256"
        }
      ],
      "name": "getStudent",
      "outputs": [
        {
          "internalType": "uint256",
          "name": "",
          "type": "uint256"
        },
        {
          "internalType": "string",
          "name": "",
          "type": "string"
        },
        {
          "internalType": "uint256",
          "name": "",
          "type": "uint256"
        },
        {
          "internalType": "string",
          "name": "",
          "type": "string"
        }
      ],
      "stateMutability": "view",
      "type": "function"
    },
    {
      "inputs": [
        {
          "internalType": "uint256",
          "name": "",
          "type": "uint256"
        }
      ],
      "name": "students",
      "outputs": [
        {
          "internalType": "uint256",
          "name": "id",
          "type": "uint256"
        },
        {
          "internalType": "string",
          "name": "name",
          "type": "string"
        },
        {
          "internalType": "uint256",
          "name": "age",
          "type": "uint256"
        },
        {
          "internalType": "string",
          "name": "major",
          "type": "string"
        }
      ],
      "stateMutability": "view",
      "type": "function"
    }
  ],
  "bytecode": "0x608060405234801561001057600080fd5b50610d55806100206000396000f3fe608060405234801561001057600080fd5b506004361061004c5760003560e01c806306ead22e146100515780635900fe9f14610084578063642f9163146100a057806366fc1d36146100d3575b600080fd5b61006b60048036038101906100669190610600565b6100ef565b60405161007b94939291906106cc565b60405180910390f35b61009e60048036038101906100999190610854565b61023f565b005b6100ba60048036038101906100b59190610600565b6102d3565b6040516100ca94939291906106cc565b60405180910390f35b6100ed60048036038101906100e891906108f3565b6104ae565b005b600081815481106100ff57600080fd5b9060005260206000209060040201600091509050806000015490806001018054610128906109d5565b80601f0160208091040260200160405190810160405280929190818152602001828054610154906109d5565b80156101a15780601f10610176576101008083540402835291602001916101a1565b820191906000526020600020905b81548152906001019060200180831161018457829003601f168201915b5050505050908060020154908060030180546101bc906109d5565b80601f01602080910402602001604051908101604052809291908181526020018280546101e8906109d5565b80156102355780601f1061020a57610100808354040283529160200191610235565b820191906000526020600020905b81548152906001019060200180831161021857829003601f168201915b5050505050905084565b600060405180608001604052808681526020018581526020018481526020018381525090806001815401808255809150506001900390600052602060002090600402016000909190919091506000820151816000015560208201518160010190816102aa9190610bb2565b506040820151816002015560608201518160030190816102ca9190610bb2565b50505050505050565b60006060600060606000805490508510610322576040517f08c379a000000000000000000000000000000000000000000000000000000000815260040161031990610cd0565b60405180910390fd5b600080868154811061033757610336610cf0565b5b90600052602060002090600402016040518060800160405290816000820154815260200160018201805461036a906109d5565b80601f0160208091040260200160405190810160405280929190818152602001828054610396906109d5565b80156103e35780601f106103b8576101008083540402835291602001916103e3565b820191906000526020600020905b8154815290600101906020018083116103c657829003601f168201915b5050505050815260200160028201548152602001600382018054610406906109d5565b80601f0160208091040260200160405190810160405280929190818152602001828054610432906109d5565b801561047f5780601f106104545761010080835404028352916020019161047f565b820191906000526020600020905b81548152906001019060200180831161046257829003601f168201915b505050505081525050905080600001518160200151826040015183606001519450945094509450509193509193565b60008054905085106104f5576040517f08c379a00000000000000000000000000000000000000000000000000000000081526004016104ec90610cd0565b60405180910390fd5b836000868154811061050a57610509610cf0565b5b906000526020600020906004020160000181905550826000868154811061053457610533610cf0565b5b906000526020600020906004020160010190816105519190610bb2565b50816000868154811061056757610566610cf0565b5b906000526020600020906004020160020181905550806000868154811061059157610590610cf0565b5b906000526020600020906004020160030190816105ae9190610bb2565b505050505050565b6000604051905090565b600080fd5b600080fd5b6000819050919050565b6105dd816105ca565b81146105e857600080fd5b50565b6000813590506105fa816105d4565b92915050565b600060208284031215610616576106156105c0565b5b6000610624848285016105eb565b91505092915050565b610636816105ca565b82525050565b600081519050919050565b600082825260208201905092915050565b60005b8381101561067657808201518184015260208101905061065b565b60008484015250505050565b6000601f19601f8301169050919050565b600061069e8261063c565b6106a88185610647565b93506106b8818560208601610658565b6106c181610682565b840191505092915050565b60006080820190506106e1600083018761062d565b81810360208301526106f38186610693565b9050610702604083018561062d565b81810360608301526107148184610693565b905095945050505050565b600080fd5b600080fd5b7f4e487b7100000000000000000000000000000000000000000000000000000000600052604160045260246000fd5b61076182610682565b810181811067ffffffffffffffff821117156107805761077f610729565b5b80604052505050565b60006107936105b6565b905061079f8282610758565b919050565b600067ffffffffffffffff8211156107bf576107be610729565b5b6107c882610682565b9050602081019050919050565b82818337600083830152505050565b60006107f76107f2846107a4565b610789565b90508281526020810184848401111561081357610812610724565b5b61081e8482856107d5565b509392505050565b600082601f83011261083b5761083a61071f565b5b813561084b8482602086016107e4565b91505092915050565b6000806000806080858703121561086e5761086d6105c0565b5b600061087c878288016105eb565b945050602085013567ffffffffffffffff81111561089d5761089c6105c5565b5b6108a987828801610826565b93505060406108ba878288016105eb565b925050606085013567ffffffffffffffff8111156108db576108da6105c5565b5b6108e787828801610826565b91505092959194509250565b600080600080600060a0868803121561090f5761090e6105c0565b5b600061091d888289016105eb565b955050602061092e888289016105eb565b945050604086013567ffffffffffffffff81111561094f5761094e6105c5565b5b61095b88828901610826565b935050606061096c888289016105eb565b925050608086013567ffffffffffffffff81111561098d5761098c6105c5565b5b61099988828901610826565b9150509295509295909350565b7f4e487b7100000000000000000000000000000000000000000000000000000000600052602260045260246000fd5b600060028204905060018216806109ed57607f821691505b602082108103610a00576109ff6109a6565b5b50919050565b60008190508160005260206000209050919050565b60006020601f8301049050919050565b600082821b905092915050565b600060088302610a687fffffffffffffffffffffffffffffffffffffffffffffffffffffffffffffffff82610a2b565b610a728683610a2b565b95508019841693508086168417925050509392505050565b6000819050919050565b6000610aaf610aaa610aa5846105ca565b610a8a565b6105ca565b9050919050565b6000819050919050565b610ac983610a94565b610add610ad582610ab6565b848454610a38565b825550505050565b600090565b610af2610ae5565b610afd818484610ac0565b505050565b5b81811015610b2157610b16600082610aea565b600181019050610b03565b5050565b601f821115610b6657610b3781610a06565b610b4084610a1b565b81016020851015610b4f578190505b610b63610b5b85610a1b565b830182610b02565b50505b505050565b600082821c905092915050565b6000610b8960001984600802610b6b565b1980831691505092915050565b6000610ba28383610b78565b9150826002028217905092915050565b610bbb8261063c565b67ffffffffffffffff811115610bd457610bd3610729565b5b610bde82546109d5565b610be9828285610b25565b600060209050601f831160018114610c1c5760008415610c0a578287015190505b610c148582610b96565b865550610c7c565b601f198416610c2a86610a06565b60005b82811015610c5257848901518255600182019150602085019450602081019050610c2d565b86831015610c6f5784890151610c6b601f891682610b78565b8355505b6001600288020188555050505b505050505050565b7f496e646578206f7574206f6620626f756e647300000000000000000000000000600082015250565b6000610cba601383610647565b9150610cc582610c84565b602082019050919050565b60006020820190508181036000830152610ce981610cad565b9050919050565b7f4e487b7100000000000000000000000000000000000000000000000000000000600052603260045260246000fdfea26469706673582212207c0b1c48dfab5de3b20f02ff827f5f5f69da2c7bbd103cf8ad39b66ee4f89e8464736f6c63430008180033",
  "linkReferences": {},
  "deployedLinkReferences": {}
}